{
  "_format": "hh3-artifact-1",
  "contractName": "DEXFactory",
  "sourceName": "contracts/DEXFactory.sol",
  "abi": [
    {
      "anonymous": false,
      "inputs": [
        {
          "indexed": true,
          "internalType": "address",
          "name": "token0",
          "type": "address"
        },
        {
          "indexed": true,
          "internalType": "address",
          "name": "token1",
          "type": "address"
        },
        {
          "indexed": false,
          "internalType": "address",
          "name": "pool",
          "type": "address"
        }
      ],
      "name": "PoolCreated",
      "type": "event"
    },
    {
      "inputs": [
        {
          "internalType": "address",
          "name": "token0",
          "type": "address"
        },
        {
          "internalType": "address",
          "name": "token1",
          "type": "address"
        }
      ],
      "name": "createPool",
      "outputs": [],
      "stateMutability": "nonpayable",
      "type": "function"
    },
    {
      "inputs": [
        {
          "internalType": "address",
          "name": "",
          "type": "address"
        },
        {
          "internalType": "address",
          "name": "",
          "type": "address"
        }
      ],
      "name": "pools",
      "outputs": [
        {
          "internalType": "address",
          "name": "",
          "type": "address"
        }
      ],
      "stateMutability": "view",
      "type": "function"
    }
  ],
  "bytecode": "0x6080604052348015600e575f5ffd5b506124fa8061001c5f395ff3fe608060405234801561000f575f5ffd5b5060043610610034575f3560e01c8063901754d714610038578063e343361514610084575b5f5ffd5b6100686100463660046103a1565b5f6020818152928152604080822090935290815220546001600160a01b031681565b6040516001600160a01b03909116815260200160405180910390f35b6100976100923660046103a1565b610099565b005b6100a28261026e565b6100e95760405162461bcd60e51b81526020600482015260136024820152720546f6b656e30206973206e6f7420455243323606c1b60448201526064015b60405180910390fd5b6100f28161026e565b6101345760405162461bcd60e51b81526020600482015260136024820152720546f6b656e31206973206e6f7420455243323606c1b60448201526064016100e0565b5f5f61014084846102fa565b6001600160a01b038083165f90815260208181526040808320848616845290915290205492945090925016156101ae5760405162461bcd60e51b8152602060048201526013602482015272506f6f6c20616c72656164792065786973747360681b60448201526064016100e0565b5f8282306040516101be9061037e565b6001600160a01b03938416815291831660208301529091166040820152606001604051809103905ff0801580156101f7573d5f5f3e3d5ffd5b506001600160a01b038481165f818152602081815260408083208886168085529083529281902080546001600160a01b0319169587169586179055519384529394509290917f9c5d829b9b23efc461f9aeef91979ec04bb903feb3bee4f26d22114abfc7335b910160405180910390a35050505050565b5f816001600160a01b03163b5f0361028757505f919050565b816001600160a01b03166318160ddd6040518163ffffffff1660e01b8152600401602060405180830381865afa9250505080156102e1575060408051601f3d908101601f191682019092526102de918101906103d2565b60015b6102ec57505f919050565b50600192915050565b919050565b5f5f826001600160a01b0316846001600160a01b0316036103505760405162461bcd60e51b815260206004820152601060248201526f4964656e746963616c20746f6b656e7360801b60448201526064016100e0565b826001600160a01b0316846001600160a01b031610610370578284610373565b83835b915091509250929050565b6120db806103ea83390190565b80356001600160a01b03811681146102f5575f5ffd5b5f5f604083850312156103b2575f5ffd5b6103bb8361038b565b91506103c96020840161038b565b90509250929050565b5f602082840312156103e2575f5ffd5b505191905056fe60e06040525f805460ff191660011781556003819055600455348015610023575f5ffd5b506040516120db3803806120db8339810160408190526100429161028f565b816001600160a01b0316836001600160a01b03160361009a5760405162461bcd60e51b815260206004820152601060248201526f4964656e746963616c20746f6b656e7360801b604482015260640160405180910390fd5b5f8054610100600160a81b0319166101006001600160a01b03868116820292909217808455600180546001600160a01b03191687851690811790915585841660c052919004909116608081905260a0919091526100f6906101df565b60015461010b906001600160a01b03166101df565b60405160200161011c9291906102e6565b60408051808303601f190181529190525f80549192509061014a9061010090046001600160a01b03166101df565b60015461015f906001600160a01b03166101df565b60405160200161017092919061031e565b6040516020818303038152906040529050818160405161018f9061026c565b61019a929190610378565b604051809103905ff0801580156101b3573d5f5f3e3d5ffd5b50600280546001600160a01b0319166001600160a01b0392909216919091179055506104609350505050565b6060816001600160a01b03166395d89b416040518163ffffffff1660e01b81526004015f60405180830381865afa92505050801561023e57506040513d5f823e601f3d908101601f1916820160405261023b91908101906103b0565b60015b610261575050604080518082019091526003815262554e4b60e81b602082015290565b92915050565b919050565b610b17806115c483390190565b80516001600160a01b0381168114610267575f5ffd5b5f5f5f606084860312156102a1575f5ffd5b6102aa84610279565b92506102b860208501610279565b91506102c660408501610279565b90509250925092565b5f81518060208401855e5f93019283525090919050565b6602222ac102628160cd1b81525f61030160078301856102cf565b602f60f81b815261031560018201856102cf565b95945050505050565b63444c502d60e01b81525f61033660048301856102cf565b602d60f81b815261031560018201856102cf565b5f81518084528060208401602086015e5f602082860101526020601f19601f83011685010191505092915050565b604081525f61038a604083018561034a565b8281036020840152610315818561034a565b634e487b7160e01b5f52604160045260245ffd5b5f602082840312156103c0575f5ffd5b81516001600160401b038111156103d5575f5ffd5b8201601f810184136103e5575f5ffd5b80516001600160401b038111156103fe576103fe61039c565b604051601f8201601f19908116603f011681016001600160401b038111828210171561042c5761042c61039c565b604052818152828201602001861015610443575f5ffd5b8160208401602083015e5f91810160200191909152949350505050565b60805160a05160c0516110d96104eb5f395f61018a01525f8181610125015281816104290152818161053a01528181610703015281816109e201528181610b6401528181610bcc0152610e1b01525f818160fe01528181610398015281816104b10152818161066e0152818161095701528181610b8501528181610bab0152610d9201526110d95ff3fe608060405234801561000f575f5ffd5b50600436106100a6575f3560e01c80639cd441da1161006e5780639cd441da1461015c578063bf333f2c1461016f578063c45a015514610185578063d004f0f7146101ac578063d21220a7146101bf578063f5ae497a146101d2575f5ffd5b80630902f1ac146100aa5780630dfe1681146100ca57806349b81e9a146100f95780639257a9d8146101205780639c8f9f2314610147575b5f5ffd5b600354600454604080519283526020830191909152015b60405180910390f35b5f546100e19061010090046001600160a01b031681565b6040516001600160a01b0390911681526020016100c1565b6100e17f000000000000000000000000000000000000000000000000000000000000000081565b6100e17f000000000000000000000000000000000000000000000000000000000000000081565b61015a610155366004610f84565b6101e5565b005b61015a61016a366004610f9b565b6105f7565b610177601e81565b6040519081526020016100c1565b6100e17f000000000000000000000000000000000000000000000000000000000000000081565b61015a6101ba366004610fbb565b610aa0565b6001546100e1906001600160a01b031681565b6002546100e1906001600160a01b031681565b5f811161022a5760405162461bcd60e51b815260206004820152600e60248201526d5a65726f206c697175696469747960901b60448201526064015b60405180910390fd5b600254604080516318160ddd60e01b815290515f926001600160a01b0316916318160ddd9160048083019260209291908290030181865afa158015610271573d5f5f3e3d5ffd5b505050506040513d601f19601f820116820180604052508101906102959190610ff0565b90505f81600354846102a7919061101b565b6102b19190611038565b90505f82600454856102c3919061101b565b6102cd9190611038565b90505f821180156102dd57505f81115b61031f5760405162461bcd60e51b8152602060048201526013602482015272125b9cdd59999a58da595b9d081bdd5d1c1d5d606a1b6044820152606401610221565b600254604051632770a7eb60e21b8152336004820152602481018690526001600160a01b0390911690639dc29fac906044015f604051808303815f87803b158015610368575f5ffd5b505af115801561037a573d5f5f3e3d5ffd5b505060405163a9059cbb60e01b8152336004820152602481018590527f00000000000000000000000000000000000000000000000000000000000000006001600160a01b0316925063a9059cbb91506044016020604051808303815f875af11580156103e8573d5f5f3e3d5ffd5b505050506040513d601f19601f8201168201806040525081019061040c9190611057565b5060405163a9059cbb60e01b8152336004820152602481018290527f00000000000000000000000000000000000000000000000000000000000000006001600160a01b03169063a9059cbb906044016020604051808303815f875af1158015610477573d5f5f3e3d5ffd5b505050506040513d601f19601f8201168201806040525081019061049b9190611057565b506040516370a0823160e01b81523060048201527f00000000000000000000000000000000000000000000000000000000000000006001600160a01b0316906370a0823190602401602060405180830381865afa1580156104fe573d5f5f3e3d5ffd5b505050506040513d601f19601f820116820180604052508101906105229190610ff0565b6003556040516370a0823160e01b81523060048201527f00000000000000000000000000000000000000000000000000000000000000006001600160a01b0316906370a0823190602401602060405180830381865afa158015610587573d5f5f3e3d5ffd5b505050506040513d601f19601f820116820180604052508101906105ab9190610ff0565b600455604080518381526020810183905290810185905233907f1dc8bb69df2b8e91fbdcbfcf93d951b3f0000f085a95fe3f7946d6161439245d9060600160405180910390a250505050565b5f8211801561060557505f81115b6106425760405162461bcd60e51b815260206004820152600e60248201526d5a65726f206c697175696469747960901b6044820152606401610221565b600354600480546040516323b872dd60e01b8152339281019290925230602483015260448201859052907f00000000000000000000000000000000000000000000000000000000000000006001600160a01b0316906323b872dd906064016020604051808303815f875af11580156106bc573d5f5f3e3d5ffd5b505050506040513d601f19601f820116820180604052508101906106e09190611057565b506040516323b872dd60e01b8152336004820152306024820152604481018490527f00000000000000000000000000000000000000000000000000000000000000006001600160a01b0316906323b872dd906064016020604051808303815f875af1158015610751573d5f5f3e3d5ffd5b505050506040513d601f19601f820116820180604052508101906107759190611057565b505f805460ff16156107eb5761079361078e858761101b565b610f16565b90505f81116107dd5760405162461bcd60e51b8152602060048201526016602482015275496e73756666696369656e74206c697175696469747960501b6044820152606401610221565b5f805460ff191690556108e5565b600254604080516318160ddd60e01b815290515f926001600160a01b0316916318160ddd9160048083019260209291908290030181865afa158015610832573d5f5f3e3d5ffd5b505050506040513d601f19601f820116820180604052508101906108569190610ff0565b90505f84610864838961101b565b61086e9190611038565b90505f8461087c848961101b565b6108869190611038565b90508082106108955780610897565b815b93505f84116108e15760405162461bcd60e51b8152602060048201526016602482015275496e73756666696369656e74206c697175696469747960501b6044820152606401610221565b5050505b6002546040516340c10f1960e01b8152336004820152602481018390526001600160a01b03909116906340c10f19906044015f604051808303815f87803b15801561092e575f5ffd5b505af1158015610940573d5f5f3e3d5ffd5b50506040516370a0823160e01b81523060048201527f00000000000000000000000000000000000000000000000000000000000000006001600160a01b031692506370a082319150602401602060405180830381865afa1580156109a6573d5f5f3e3d5ffd5b505050506040513d601f19601f820116820180604052508101906109ca9190610ff0565b6003556040516370a0823160e01b81523060048201527f00000000000000000000000000000000000000000000000000000000000000006001600160a01b0316906370a0823190602401602060405180830381865afa158015610a2f573d5f5f3e3d5ffd5b505050506040513d601f19601f82011682018060405250810190610a539190610ff0565b600455604080518681526020810186905290810182905233907f64b83944e79c3ce8d4c297411de637c3e102d064677aac0c163976ebdcd6f50e9060600160405180910390a25050505050565b5f8111610adc5760405162461bcd60e51b815260206004820152600a60248201526916995c9bc81a5b9c1d5d60b21b6044820152606401610221565b5f546001600160a01b03838116610100909204161480610b0957506001546001600160a01b038381169116145b610b455760405162461bcd60e51b815260206004820152600d60248201526c24b73b30b634b2103a37b5b2b760991b6044820152606401610221565b5f80546001600160a01b038481166101009092041614908082610ba9577f00000000000000000000000000000000000000000000000000000000000000007f0000000000000000000000000000000000000000000000000000000000000000610bec565b7f00000000000000000000000000000000000000000000000000000000000000007f00000000000000000000000000000000000000000000000000000000000000005b915091505f5f84610c0257600454600354610c09565b6003546004545b6040516323b872dd60e01b81523360048201523060248201526044810189905291935091506001600160a01b038516906323b872dd906064016020604051808303815f875af1158015610c5e573d5f5f3e3d5ffd5b505050506040513d601f19601f82011682018060405250810190610c829190611057565b505f612710610c92601e8261107d565b610c9c908961101b565b610ca69190611038565b90505f610cb38285611090565b610cbd848461101b565b610cc79190611038565b90505f8111610d0e5760405162461bcd60e51b8152602060048201526013602482015272125b9cdd59999a58da595b9d081bdd5d1c1d5d606a1b6044820152606401610221565b60405163a9059cbb60e01b8152336004820152602481018290526001600160a01b0386169063a9059cbb906044016020604051808303815f875af1158015610d58573d5f5f3e3d5ffd5b505050506040513d601f19601f82011682018060405250810190610d7c9190611057565b506040516370a0823160e01b81523060048201527f00000000000000000000000000000000000000000000000000000000000000006001600160a01b0316906370a0823190602401602060405180830381865afa158015610ddf573d5f5f3e3d5ffd5b505050506040513d601f19601f82011682018060405250810190610e039190610ff0565b6003556040516370a0823160e01b81523060048201527f00000000000000000000000000000000000000000000000000000000000000006001600160a01b0316906370a0823190602401602060405180830381865afa158015610e68573d5f5f3e3d5ffd5b505050506040513d601f19601f82011682018060405250810190610e8c9190610ff0565b600455337fac53dec9f38a61191de68bb97c4d441b8d4ec76247f79b0f50db3b57e4ed09738a8a8a610ecd575f5461010090046001600160a01b0316610eda565b6001546001600160a01b03165b604080516001600160a01b03948516815260208101939093529216818301526060810185905290519081900360800190a2505050505050505050565b5f6003821115610f755750805f610f2e600283611038565b610f39906001611090565b90505b81811015610f6f57905080600281610f548186611038565b610f5e9190611090565b610f689190611038565b9050610f3c565b50919050565b8115610f7f575060015b919050565b5f60208284031215610f94575f5ffd5b5035919050565b5f5f60408385031215610fac575f5ffd5b50508035926020909101359150565b5f5f60408385031215610fcc575f5ffd5b82356001600160a01b0381168114610fe2575f5ffd5b946020939093013593505050565b5f60208284031215611000575f5ffd5b5051919050565b634e487b7160e01b5f52601160045260245ffd5b808202811582820484141761103257611032611007565b92915050565b5f8261105257634e487b7160e01b5f52601260045260245ffd5b500490565b5f60208284031215611067575f5ffd5b81518015158114611076575f5ffd5b9392505050565b8181038181111561103257611032611007565b808201808211156110325761103261100756fea2646970667358221220942af0a7c52c22ae387bc20aa8a7b215a07290ae25abc5b27f67a300eb823a8a64736f6c634300081c0033608060405234801561000f575f5ffd5b50604051610b17380380610b1783398101604081905261002e91610103565b8181600361003c83826101ec565b50600461004982826101ec565b5050600580546001600160a01b03191633179055506102a6915050565b634e487b7160e01b5f52604160045260245ffd5b5f82601f830112610089575f5ffd5b81516001600160401b038111156100a2576100a2610066565b604051601f8201601f19908116603f011681016001600160401b03811182821017156100d0576100d0610066565b6040528181528382016020018510156100e7575f5ffd5b8160208501602083015e5f918101602001919091529392505050565b5f5f60408385031215610114575f5ffd5b82516001600160401b03811115610129575f5ffd5b6101358582860161007a565b602085015190935090506001600160401b03811115610152575f5ffd5b61015e8582860161007a565b9150509250929050565b600181811c9082168061017c57607f821691505b60208210810361019a57634e487b7160e01b5f52602260045260245ffd5b50919050565b601f8211156101e757805f5260205f20601f840160051c810160208510156101c55750805b601f840160051c820191505b818110156101e4575f81556001016101d1565b50505b505050565b81516001600160401b0381111561020557610205610066565b610219816102138454610168565b846101a0565b6020601f82116001811461024b575f83156102345750848201515b5f19600385901b1c1916600184901b1784556101e4565b5f84815260208120601f198516915b8281101561027a578785015182556020948501946001909201910161025a565b508482101561029757868401515f19600387901b60f8161c191681555b50505050600190811b01905550565b610864806102b35f395ff3fe608060405234801561000f575f5ffd5b50600436106100b1575f3560e01c806340c10f191161006e57806340c10f191461015557806370a082311461016a57806395d89b41146101925780639dc29fac1461019a578063a9059cbb146101ad578063dd62ed3e146101c0575f5ffd5b806306fdde03146100b5578063095ea7b3146100d357806316f0115b146100f657806318160ddd1461012157806323b872dd14610133578063313ce56714610146575b5f5ffd5b6100bd6101f8565b6040516100ca91906106d4565b60405180910390f35b6100e66100e1366004610724565b610288565b60405190151581526020016100ca565b600554610109906001600160a01b031681565b6040516001600160a01b0390911681526020016100ca565b6002545b6040519081526020016100ca565b6100e661014136600461074c565b6102a1565b604051601281526020016100ca565b610168610163366004610724565b6102c4565b005b610125610178366004610786565b6001600160a01b03165f9081526020819052604090205490565b6100bd61031d565b6101686101a8366004610724565b61032c565b6100e66101bb366004610724565b61037c565b6101256101ce3660046107a6565b6001600160a01b039182165f90815260016020908152604080832093909416825291909152205490565b606060038054610207906107d7565b80601f0160208091040260200160405190810160405280929190818152602001828054610233906107d7565b801561027e5780601f106102555761010080835404028352916020019161027e565b820191905f5260205f20905b81548152906001019060200180831161026157829003601f168201915b5050505050905090565b5f33610295818585610389565b60019150505b92915050565b5f336102ae85828561039b565b6102b9858585610417565b506001949350505050565b6005546001600160a01b0316331461030f5760405162461bcd60e51b815260206004820152600960248201526813db9b1e481c1bdbdb60ba1b60448201526064015b60405180910390fd5b6103198282610474565b5050565b606060048054610207906107d7565b6005546001600160a01b031633146103725760405162461bcd60e51b815260206004820152600960248201526813db9b1e481c1bdbdb60ba1b6044820152606401610306565b61031982826104a8565b5f33610295818585610417565b61039683838360016104dc565b505050565b6001600160a01b038381165f908152600160209081526040808320938616835292905220545f19811015610411578181101561040357604051637dc7a0d960e11b81526001600160a01b03841660048201526024810182905260448101839052606401610306565b61041184848484035f6104dc565b50505050565b6001600160a01b03831661044057604051634b637e8f60e11b81525f6004820152602401610306565b6001600160a01b0382166104695760405163ec442f0560e01b81525f6004820152602401610306565b6103968383836105ae565b6001600160a01b03821661049d5760405163ec442f0560e01b81525f6004820152602401610306565b6103195f83836105ae565b6001600160a01b0382166104d157604051634b637e8f60e11b81525f6004820152602401610306565b610319825f836105ae565b6001600160a01b0384166105055760405163e602df0560e01b81525f6004820152602401610306565b6001600160a01b03831661052e57604051634a1406b160e11b81525f6004820152602401610306565b6001600160a01b038085165f908152600160209081526040808320938716835292905220829055801561041157826001600160a01b0316846001600160a01b03167f8c5be1e5ebec7d5bd14f71427d1e84f3dd0314c0f7b2291e5b200ac8c7c3b925846040516105a091815260200190565b60405180910390a350505050565b6001600160a01b0383166105d8578060025f8282546105cd919061080f565b909155506106489050565b6001600160a01b0383165f908152602081905260409020548181101561062a5760405163391434e360e21b81526001600160a01b03851660048201526024810182905260448101839052606401610306565b6001600160a01b0384165f9081526020819052604090209082900390555b6001600160a01b03821661066457600280548290039055610682565b6001600160a01b0382165f9081526020819052604090208054820190555b816001600160a01b0316836001600160a01b03167fddf252ad1be2c89b69c2b068fc378daa952ba7f163c4a11628f55a4df523b3ef836040516106c791815260200190565b60405180910390a3505050565b602081525f82518060208401528060208501604085015e5f604082850101526040601f19601f83011684010191505092915050565b80356001600160a01b038116811461071f575f5ffd5b919050565b5f5f60408385031215610735575f5ffd5b61073e83610709565b946020939093013593505050565b5f5f5f6060848603121561075e575f5ffd5b61076784610709565b925061077560208501610709565b929592945050506040919091013590565b5f60208284031215610796575f5ffd5b61079f82610709565b9392505050565b5f5f604083850312156107b7575f5ffd5b6107c083610709565b91506107ce60208401610709565b90509250929050565b600181811c908216806107eb57607f821691505b60208210810361080957634e487b7160e01b5f52602260045260245ffd5b50919050565b8082018082111561029b57634e487b7160e01b5f52601160045260245ffdfea26469706673582212203e781900d2847bc5b2371f3a94a215fd1866df206d8e2ed0970e2a6d1c52d08364736f6c634300081c0033a2646970667358221220d57d51617e63d7c28800582a6ccb68ee7219fd1f295f0fb89f349a0005042cd264736f6c634300081c0033",
  "linkReferences": {},
  "deployedLinkReferences": {},
  "immutableReferences": {},
  "inputSourceName": "project/contracts/DEXFactory.sol",
  "buildInfoId": "solc-0_8_28-5f850368426afff9bed7a6252cea11eea7739088"
}